:020000040800F2
:1000000000040020E10D0008E10F0008E10F0008E6
:10001000E10F0008E10F0008E10F0008E10F000800
:10002000E10F0008E10F0008E10F000811100008BF
:10003000E10F0008E10F0008E10F000801110008BE
:10004000E10F000841860008E10F00080187000861
:10005000E10F0008E10F00086184000891840008A6
:10006000C1840008F184000821850008917D000802
:10007000C17D0008F17D0008217E0008517E000846
:10008000817E0008B17E0008E10F0008E10F000842
:10009000E10F0008E10F0008E10F0008518500089A
:1000A000E10F0008E10F0008E10F0008E10F000870
:1000B000E10F000821960008E10F0008C18C00083C
:1000C000E18D0008E10F0008E10F0008E10F0008D2
:1000D000E10F0008E10F000811970008E10F000888
:1000E000C185000871860008A1860008E10F00089C
:1000F000E10F0008E10F0008E10F0008E17E0008B1
:10010000E10F0008E10F0008E10F0008E10F00080F
:10011000E10F0008E10F0008E10F0008E10F0008FF
:10012000117F0008417F0008717F0008A17F00084F
:10013000D17F0008E10F0008D1860008E10F000818
:10014000E10F0008E10F0008E10F0008E10F0008CF
:10015000018000083180000861800008E10F00087C
:10016000E10F0008E10F0008E10F0008E10F0008AF
:10017000E10F0008E10F0008E10F0008E10F00089F
:10018000E10F0008E10F0008E10F0008E10F00088F
:10019000E10F0008E10F0008E10F0008E10F00087F
:0C01A000E10F0008E10F0008E10F00086B
:1001B00070B5002484B0C4F2020406F069FD01F0B9
:1001C00037F87948794907F0A3FC042140F28232DC
:1001D000204608F06DFC40F282322046082108F0EB
:1001E00067FC7348734906F0D3FD6F4872490DF000
:1001F0003FFF4FF40073194623830122204608F085
:1002000057FC2046402140F2922208F051FC204643
:10021000202140F2822208F04BFC40F29222802101
:10022000204608F045FC654807F032FA6348644907
:1002300007F03EFA5C4863490DF01AFF5F4807F08B
:100240009FF8002840F0AA805F490AF0F9FF0028D3
:1002500040F0A08054485D495D4D0DF009FF5248C3
:100260005C4901222A700DF003FF4F480EF030FB6D
:100270004FF48065C4F202055748584906F0A8FDBE
:1002800028464FF4807140F2262208F011FC2846DF
:1002900040F226224FF4007108F00AFC4026424842
:1002A0004F490024C4F202040DF0E2FE2846314614
:1002B00001222E8308F0FCFB204640F292222021EE
:1002C00008F0F6FB2046314640F2822208F0F0FBAF
:1002D0002046802140F2922208F0EAFB20464FF4AB
:1002E0008061202208F0E4FB4FF480731946638399
:1002F0000122204608F0DCFB3A483B4D06F0F0FCBA
:100300003A4807F03DFC284839490DF0B1FE26482F
:10031000384900240DF0ACFE234837490DF0A8FE03
:10032000304A364B31483649039500940194029483
:100330000BF0AEFF1C482E490DF09AFE31491A48C9
:100340000DF096FE20460CF0CBF9174828490DF029
:100350008FFE4FF4EC7132462B4B00942B4801F08A
:100360008FF90BF00DF944B1207F0E280DD04FF41A
:10037000FA7001F0D5F9002CF6D125484FF4AB61A5
:1003800040220BF01DF90446F1E7204601F060FA27
:100390000024ECE7094807F04BF969E702481D49DA
:1003A0000DF066FE64E700BF181B0020B0250108B1
:1003B000081B0020401C010804240108A42100207F
:1003C000E0080020242401086C1F00205C240108A0
:1003D000A0210020E0230108681A0020501C010819
:1003E0006C240108601A002091D70008A41A00208C
:1003F000801F010894240108B0240108B0230020C4
:1004000030090020C024010891E00008D821002014
:10041000A01C010840240108AFF30080AFF3008066
:1004200081F0004102E000BF83F0004330B54FEAA5
:1004300041044FEA430594EA050F08BF90EA020F12
:100440001FBF54EA000C55EA020C7FEA645C7FEAA5
:10045000655C00F0E2804FEA5454D4EB5555B8BFC8
:100460006D420CDD2C4480EA020281EA030382EA39
:10047000000083EA010180EA020281EA0303362DCB
:1004800088BF30BD11F0004F4FEA01314FF4801C9E
:100490004CEA113102D0404261EB410113F0004FB0
:1004A0004FEA03334CEA133302D0524263EB430367
:1004B00094EA050F00F0A780A4F10104D5F1200E05
:1004C0000DDB02FA0EFC22FA05F2801841F1000160
:1004D00003FA0EF2801843FA05F359410EE0A5F134
:1004E00020050EF1200E012A03FA0EFC28BF4CF065
:1004F000020C43FA05F3C01851EBE37101F000451B
:1005000007D54FF0000EDCF1000C7EEB00006EEB27
:100510000101B1F5801F1BD3B1F5001F0CD34908B1
:100520005FEA30004FEA3C0C04F101044FEA445208
:1005300012F5800F80F09A80BCF1004F08BF5FEA8F
:10054000500C50F1000041EB045141EA050130BD6F
:100550005FEA4C0C404141EB010111F4801FA4F112
:100560000104E9D191F0000F04BF01460020B1FA67
:1005700081F308BF2033A3F10B03B3F120020CDA9F
:100580000C3208DD02F1140CC2F10C0201FA0CF07D
:1005900021FA02F10CE002F11402D8BFC2F1200CE2
:1005A00001FA02F120FA0CFCDCBF41EA0C01904098
:1005B000E41AA2BF01EB0451294330BD6FEA0404E1
:1005C0001F3C1CDA0C340EDC04F11404C4F12002CC
:1005D00020FA04F001FA02F340EA030021FA04F3DE
:1005E00045EA030130BDC4F10C04C4F1200220FA35
:1005F00002F001FA04F340EA0300294630BD21FA73
:1006000004F0294630BD94F0000F83F4801306BF38
:1006100081F480110134013D4EE77FEA645C18BF2C
:100620007FEA655C29D094EA050F08BF90EA020FC3
:1006300005D054EA000C04BF1946104630BD91EABB
:10064000030F1EBF0021002030BD5FEA545C05D1BE
:100650004000494128BF41F0004130BD14F58004FD
:100660003CBF01F5801130BD01F0004545F0FE4171
:1006700041F470014FF0000030BD7FEA645C1ABFA6
:10068000194610467FEA655C1CBF0B46024650EADD
:10069000013406BF52EA033591EA030F41F4002109
:1006A00030BD00BF90F0000F04BF0021704730B58F
:1006B0004FF4806404F132044FF000054FF0000164
:1006C00050E700BF90F0000F04BF0021704730B525
:1006D0004FF4806404F1320410F0004548BF4042FA
:1006E0004FF000013EE700BF42004FEAE2014FEA4F
:1006F00031014FEA02701FBF12F07F4393F07F4F2A
:1007000081F06051704792F0000F14BF93F07F4F5B
:10071000704730B54FF4607401F0004521F000419E
:1007200020E700BF50EA010208BF704730B54FF024
:1007300000050AE050EA010208BF704730B511F029
:10074000004502D5404261EB41014FF4806404F161
:1007500032045FEA915C3FF4DCAE4FF003025FEAE3
:10076000DC0C18BF03325FEADC0C18BF033202EB6B
:10077000DC02C2F1200300FA03FC20FA02F001FAC5
:1007800003FE40EA0E0021FA02F11444C1E600BF64
:1007900070B54FF0FF0C4CF4E06C1CEA11541DBF17
:1007A0001CEA135594EA0C0F95EA0C0F00F0DEF8E2
:1007B0002C4481EA030621EA4C5123EA4C5350EAC7
:1007C000013518BF52EA033541F4801143F4801318
:1007D00038D0A0FB02CE4FF00005E1FB02E506F0A9
:1007E0000042E0FB03E54FF00006E1FB03569CF0FE
:1007F000000F18BF4EF0010EA4F1FF04B6F5007F04
:1008000064F5407404D25FEA4E0E6D4146EB060675
:1008100042EAC62141EA55514FEAC52040EA5E50FE
:100820004FEACE2EB4F1FD0C88BFBCF5E06F1ED8A8
:10083000BEF1004F08BF5FEA500E50F1000041EBDF
:10084000045170BD06F0004646EA010140EA02008C
:1008500081EA0301B4EB5C04C2BFD4EB0C0541EAAE
:10086000045170BD41F480114FF0000E013C00F3C3
:10087000AB8014F1360FDEBF002001F0004170BDE7
:10088000C4F10004203C35DA0C341BDC04F1140400
:10089000C4F1200500FA05F320FA04F001FA05F28C
:1008A00040EA020001F0004221F0004110EBD37059
:1008B00021FA04F642EB06015EEA430E08BF20EA85
:1008C000D37070BDC4F10C04C4F1200500FA04F328
:1008D00020FA05F001FA04F240EA020001F00041BA
:1008E00010EBD37041F100015EEA430E08BF20EA2D
:1008F000D37070BDC4F1200500FA05F24EEA020E75
:1009000020FA04F301FA05F243EA020321FA04F0A3
:1009100001F0004121FA04F220EA020000EBD3705A
:100920005EEA430E08BF20EAD37070BD94F0000F5A
:100930000FD101F00046400041EB010111F4801F8E
:1009400008BF013CF7D041EA060195F0000F18BF3F
:10095000704703F00046520043EB030313F4801F7B
:1009600008BF013DF7D043EA0603704794EA0C0F35
:100970000CEA135518BF95EA0C0F0CD050EA41064B
:1009800018BF52EA4306D1D181EA030101F00041C8
:100990004FF0000070BD50EA410606BF10461946F0
:1009A00052EA430619D094EA0C0F02D150EA0136FC
:1009B00013D195EA0C0F05D152EA03361CBF10463D
:1009C00019460AD181EA030101F0004141F0FE41DC
:1009D00041F470014FF0000070BD41F0FE4141F460
:1009E000780170BD70B54FF0FF0C4CF4E06C1CEA60
:1009F00011541DBF1CEA135594EA0C0F95EA0C0F15
:100A000000F0A7F8A4EB050481EA030E52EA0335CF
:100A10004FEA013100F088804FEA03334FF08055F0
:100A200045EA131343EA12634FEA022245EA11151D
:100A300045EA10654FEA00260EF000419D4208BFCE
:100A4000964244F1FD0404F5407402D25B084FEA7B
:100A50003202B61A65EB03055B084FEA32024FF427
:100A600080104FF4002CB6EB020E75EB030E22BF84
:100A7000B61A754640EA0C005B084FEA3202B6EB44
:100A8000020E75EB030E22BFB61A754640EA5C00F3
:100A90005B084FEA3202B6EB020E75EB030E22BF83
:100AA000B61A754640EA9C005B084FEA3202B6EB84
:100AB000020E75EB030E22BFB61A754640EADC0043
:100AC00055EA060E18D04FEA051545EA16754FEAA5
:100AD00006164FEAC30343EA52734FEAC2025FEAC3
:100AE0001C1CC0D111F4801F0BD141EA00014FF052
:100AF00000004FF0004CB6E711F4801F04BF014323
:100B00000020B4F1FD0C88BFBCF5E06F3FF6AFAE3E
:100B1000B5EB030C04BFB6EB020C5FEA500C50F1CE
:100B2000000041EB045170BD0EF0004E4EEA113151
:100B300014EB5C04C2BFD4EB0C0541EA045170BD58
:100B400041F480114FF0000E013C90E645EA060E9C
:100B50008DE60CEA135594EA0C0F08BF95EA0C0FCA
:100B60003FF43BAF94EA0C0F0AD150EA01347FF412
:100B700034AF95EA0C0F7FF425AF104619462CE7E9
:100B800095EA0C0F06D152EA03353FF4FDAE10464C
:100B9000194622E750EA410618BF52EA43067FF49D
:100BA000C5AE50EA41047FF40DAF52EA43057FF42D
:100BB000EBAE12E7000000000000000000000000A3
:100BC0004FEA410212F5001215D211D56FF4787375
:100BD000B3EB625212D94FEAC12343F0004343EA18
:100BE000505311F0004F23FA02F018BF40427047F3
:100BF0004FF00000704750EA013005D111F000407D
:100C000008BF6FF0004070474FF00000704700BF12
:100C10004FEA4102B2F1E04324BFB3F5001CDCF11E
:100C2000FE5C0DD901F0004C4FEAC0024CEA507056
:100C3000B2F1004F40EB830008BF20F00100704785
:100C400011F0804F21D113F13872BCBF01F0004088
:100C5000704741F480114FEA5252C2F11802C2F1BA
:100C6000200C10FA0CF320FA02F018BF40F001003B
:100C70004FEAC1234FEAD32303FA0CFC40EA0C00ED
:100C800023FA02F34FEA4303CCE77FEA625307D12A
:100C900050EA01331EBF4FF0FE4040F44000704761
:100CA00001F0004040F0FE4040F40000704700BFFB
:100CB0004FF0FF3C06E000BF4FF0010C02E000BF28
:100CC0004FF0010C4DF804CD4FEA410C7FEA6C5C0B
:100CD0004FEA430C18BF7FEA6C5C1BD001B050EAAE
:100CE000410C0CBF52EA430C91EA030F02BF90EA99
:100CF000020F0020704710F1000F91EA030F58BF58
:100D0000994208BF90422CBFD8176FEAE37040F0B9
:100D1000010070474FEA410C7FEA6C5C02D150EA57
:100D2000013C07D14FEA430C7FEA6C5CD6D152EA12
:100D3000033CD3D05DF8040B704700BF84461046D7
:100D400062468C461946634600E000BF01B5FFF7D6
:100D5000B7FF002848BF10F1000F01BD4DF808EDA6
:100D6000FFF7F4FF0CBF012000205DF808FB00BF77
:100D70004DF808EDFFF7EAFF34BF012000205DF8D1
:100D800008FB00BF4DF808EDFFF7E0FF94BF01201E
:100D900000205DF808FB00BF4DF808EDFFF7CEFF1F
:100DA00094BF012000205DF808FB00BF4DF808ED5E
:100DB000FFF7C4FF34BF012000205DF808FB00BF2F
:100DC000704700BFAFF30080AFF30080AFF3008047
:100DD000FEE700BFAFF30080AFF30080AFF3008009
:100DE00072B6704C84F309884EF63472CEF200026B
:100DF0004EF68853CEF200034FF040411160186860
:100E000040F470051D600022E1EE102A4EF63C739E
:100E1000CEF2000306211A6081F31488BFF36F8FAE
:100E20006148624DA84218D2EA1C051D531B23F0ED
:100E30000302034610184FF0553183421960C2F384
:100E400080020AD01AB185422B46296005D01D1DAB
:100E50005960083383426960F9D15548A04218D2DD
:100E60005449041D0A1B22F00305034628184FF0BD
:100E7000553183421960C5F380020AD01AB1844209
:100E80002346216005D01D1D5960083383426960E7
:100E9000F9D108F045FD4849484881421BD2C61C9B
:100EA0000C1D321B464822F00302161D0568042360
:100EB000B3420D60C2F380020DD022B14568082311
:100EC000B342256007D01A1D1D5884585D50083361
:100ED000B3428C50F7D13B483B49884217D2CB1CD8
:100EE000041D1A1B22F00305034628180021834223
:100EF0001960C5F380020AD01AB1844223462160EA
:100F000005D01D1D5960083383426960F9D1FFF790
:100F100057FF2E4D2E498D421DD2CC1C2E1DA71BD6
:100F2000B808471C01242A6800EA04089047BC421C
:100F300011D0B8F1000F05D0022433689847BC42A5
:100F4000354608D0696888470234A8682E1D804756
:100F50000835BC42F6D1FFF72BF91E4D1E4A9542CB
:100F60001DD2D41C2E1DA71BBB085F1C01242968A1
:100F700003EA04088847BC4211D0B8F1000F05D03D
:100F8000022430688047BC42354608D06A689047E2
:100F90000234AB682E1D98470835BC42F6D1FFF7E6
:100FA00017FF00BF00080020000000200004002000
:100FB000000400200308002000080020800D00200D
:100FC00078270108800D002068240020AC0100086B
:100FD000AC010008AC010008AC010008AFF30080D0
:100FE000FEE700BFAFF30080AFF30080AFF30080F7
:100FF00072B6FEE7AFF30080AFF30080AFF300807E
:1010000000F0CEFA00DF00BFAFF30080AFF3008046
:101010004EF63073CEF200035A6822F00100586099
:10102000EFF30981683181F30988002383F3118884
:10103000704700BFAFF30080AFF30080AFF30080D4
:1010400008B54FF46D43CEF200034FF44072C0F286
:10105000FA520021996007201021DA6000F0C0F8F0
:101060000A20202100F0BCF80B208021BDE80840B8
:1010700000F0B6B8AFF30080AFF30080AFF30080AC
:10108000202383F311884FF46D43CEF20003586898
:1010900010F400631BD0F1EE10FAEFF309834FF068
:1010A000807243F84C2CA3F1680181F309880E4942
:1010B0008A690968D07F8968926858B1914294BF63
:1010C0000022012262B1094A43F8502C704783F391
:1010D00011887047914234BF00220122002AF2D1C8
:1010E000034843F8500C7047400F002001100008DF
:1010F00004100008AFF30080AFF30080AFF300806E
:1011000008B5202383F3118800F0CAF8002383F385
:101110001188BDE80840FFF7B3BF00BFAFF3008000
:101120002DE9F04F2DED108AC1F80CD0D0F80CD07D
:10113000BDEC108ABDE8F08FAFF30080AFF3008004
:10114000002383F311882846A04700F049FB70472D
:10115000F0B44FF461438408CEF20003C03400F0D1
:10116000030553F82470ED00FF26420906FA05F640
:1011700027EA060601FA05F500F01F0002F16007F4
:10118000012101FA00F02E4343F8246043F82700C0
:1011900043F82200F0BC7047AFF30080AFF300804B
:1011A00041094FF4614310B4CEF2000300F01F0276
:1011B0002031012404FA02F4820843F82140C032AD
:1011C00000F0030053F82210C000FF2404FA00F0DE
:1011D00021EA000143F8221010BC7047AFF30080F1
:1011E00082084FF46D43CEF20003063200F0030094
:1011F00030B4C00053F82250FF2404FA00F425EA6A
:10120000040401FA00F10C4343F8224030BC70475B
:10121000024B034A98698261FEE700BF400F00203D
:10122000A0030108AFF30080AFF30080AFF30080AC
:1012300000B583B0FFF704FF00F0DAF800F060F8C3
:1012400001F066FB01F0ACFB40F680504021C2F299
:10125000000000F0B5F940F64071C2F20001012231
:1012600088610277002383F3118862B640F2B030C0
:101270008969C0F601008861009340F6C85041F2C8
:1012800011234FF4B471C0F60003C2F2000000F065
:10129000F7F903B000BD00BFAFF30080AFF30080EB
:1012A00038B5134B9869C27F0AB1511EC177036AE2
:1012B000104C5A1C0262E0682268411CA242E160A4
:1012C00014D09568013D956085B91368D1685C605C
:1012D0002360D560002383F3118810698847202399
:1012E00083F31188226890680028EED038BD00BFD3
:1012F000400F0020300F0020AFF30080AFF30080DC
:1013000040F63073C2F200034FF0FF3200205B6002
:101310001B609A60D8607047AFF30080AFF3008025
:1013200070B40C4E03613468C260A568A94204D948
:101330002468491BA5688D42FAD363680460B442EF
:10134000436018606060816002D0A068411AA160AB
:1013500070BC7047300F0020AFF30080AFF3008007
:101360000368074A934203D0996882688918996094
:1013700042681360036800215A60C160704700BF73
:10138000300F0020AFF30080AFF30080AFF3008098
:10139000202383F31188037F0D2B11D8DFE803F09E
:1013A00020101007100B101010101010100B416AB5
:1013B0008A68531C8B6090E80C001A6001684B60CF
:1013C0004FF0FF3242628168074B002202771B68B0
:1013D0009A688A42FBD2596803604160086058608D
:1013E000002383F311887047400F0020AFF3008083
:1013F00040F64073C2F2000300225B601B609A60FB
:101400005B611B61704700BFAFF30080AFF30080EA
:1014100000228168054B02771B689A688A42FBD2DA
:10142000596803604160086058607047400F0020B1
:1014300040F64073C2F2000310B499691A68087745
:1014400014201468C87701201077104663601C6070
:101450009A6110BCFFF764BEAFF30080AFF3008069
:1014600030B54B1C87B0054611D00B4C0B4AA36915
:1014700001A8FFF755FF2846FFF7DAFF049B13B1D9
:1014800001A8FFF76DFFA069406A07B030BDFFF704
:10149000CFFF014CF7E700BF400F00209113000879
:1014A000F0B4144F8568BE690446B06861620023D9
:1014B00085420CD82377394609688A689542FBD95A
:1014C00048682160606004604C60F0BC704733770E
:1014D000394609688A689042FBD948683160706073
:1014E00006604E600123204631462377BC61F0BC84
:1014F000FFF716BE400F0020AFF30080AFF300806F
:101500000E4B18689969026830B453601A608C6891
:1015100098610125142300220577CB770A770346CB
:1015200000E01B689A68A242FBD25A680B604A60CE
:101530001160596030BCFFF7F3BD00BF400F0020C1
:101540000D4B18689969026830B453608C681A6052
:1015500001259861002305770B77034600E01B689F
:101560009A68A242FBD85A680B604A6011605960C1
:1015700030BCFFF7D5BD00BF400F0020AFF30080A7
:10158000044B1A68986991688368994200D870473B
:10159000FFF7D6BF400F0020AFF30080AFF300800D
:1015A000034B9869C17F09B1FFF7CABFFFF7A8BF16
:1015B000400F0020AFF30080AFF30080AFF3008056
:1015C000F0B440F64074C2F2000400226569016480
:1015D000046100F12C06816000F1280745614FF09D
:1015E000020C60610121142480F81CC04277C4778A
:1015F000C2638263026281778261286187620663C7
:10160000C662F0BC704700BFAFF30080AFF300804C
:101610002DE9F001643940F640754118C2F2000529
:1016200000266F69C1600B64059B4B6441F2411356
:10163000C0F600030B660221944600F1280800F171
:101640002C020177142301210561C0F808C047610D
:10165000044668614677C377C0F840C0C6638663B6
:101660000662817786613861C0F828800263C262B1
:10167000BDE8F001704700BFAFF30080AFF300801A
:1016800010B51C4682B0202383F311882346049CA6
:101690000094FFF7BDFF00210446FFF701FF002380
:1016A00083F31188204602B010BD00BFAFF3008065
:1016B00010B5202383F31188084B9A69146C916844
:1016C0008C4201D0814200D290601064FFF758FF35
:1016D000002383F31188204610BD00BF400F002077
:1016E00010B52023044683F311880021FFF7D8FEAC
:1016F000002383F31188204610BD00BFAFF30080A4
:10170000202383F31188437F43F0040141770023B2
:1017100083F31188704700BFAFF30080AFF3008000
:1017200008B50146202383F311880620FFF798FEB1
:10173000002383F3118808BDAFF30080AFF300806E
:1017400008B5202383F31188054BD968411A02D0CC
:101750000620FFF785FE002383F3118808BD00BF34
:10176000300F0020AFF30080AFF30080AFF30080B4
:1017700008B5202383F31188064B1A68986991688D
:101780008368994201D3FFF7BBFE002383F31188DE
:1017900008BD00BF400F0020AFF30080AFF3008012
:1017A00038B50E4B9C692546606255F8280FA84253
:1017B00006D00168A162FFF72BFEA06AA842F8D10B
:1017C000607F830704D1636922691A6121694B61D3
:1017D0000E20BDE83840FFF72BBE00BF400F0020B1
:1017E000202383F31188FFF7DBBF00BFAFF3008036
:1017F00038B50446202383F31188037F0E2B07D0CE
:10180000826A0848816907200A60A162FFF710FE1A
:10181000656A002383F31188204600F019F82846F2
:1018200038BD00BF400F0020AFF30080AFF3008051
:10183000202383F31188837F591C8177002383F34E
:1018400011887047AFF30080AFF30080AFF30080E2
:101850000146202383F31188827F531EDAB28277F8
:10186000002383F3118812B9037F0E2B00D0704739
:10187000427F02F00303012B09D0022BF7D1436909
:101880000269406C1A610A69536101F0B9B9436990
:1018900002691A6101694B6101F0EAB8AFF3008097
:1018A000F0B583B00D4617461E4601F099F8044680
:1018B00090B1202383F31188089C334629463A4689
:1018C0000094FFF7A5FE0123437700210446FFF7AC
:1018D000E7FD002383F31188204603B0F0BD00BF6D
:1018E0002DE9F04182B005460E4690461F4601F0B4
:1018F0006FF9044690B1202383F31188696800973B
:1019000043463246FFF784FE0223437745640021B5
:101910000446FFF7C5FD002383F31188204602B07B
:10192000BDE8F081AFF30080AFF30080AFF300803B
:10193000202383F3118840F64072C2F20002002394
:101940001069817F4A1C827783F31188704700BF3A
:1019500010B5202383F31188074B04699C4209D0FA
:10196000A17F4A1CA277002383F31188FFF770FF41
:10197000204610BD0024F6E7400F0020AFF30080A2
:101980004060006081607047AFF30080AFF300807B
:10199000F8B5876881600137002F044629DC40686C
:1019A000436863601C60FFF733FD6FF0010607F0CA
:1019B000010146627D1CEFB149B160684268626016
:1019C0001460FFF725FD0135012D466213D06068D4
:1019D000436863601C60FFF71BFD466260684168F6
:1019E00061600C60FFF714FD6A1C46620235002A34
:1019F000EDD1F8BDF8BDF8BDAFF30080AFF30080C6
:101A000008B5202383F31188FFF7C2FFFFF7B8FD65
:101A1000002383F3118808BDAFF30080AFF300808B
:101A200082680346501E002810B5986001DB002034
:101A300010BD074CA26953625968136051600320BE
:101A40005A600A60FFF7F4FCA369586A10BD00BF32
:101A5000400F0020AFF30080AFF30080AFF30080B1
:101A600008B5202383F31188FFF7DAFF002383F3FF
:101A7000118808BDAFF30080AFF30080AFF30080A2
:101A800003468068421E002A10B40C469A6002DBAE
:101A9000002010BC704759B1074CA26953625C68C2
:101AA000032082E818005A60226010BCFFF7D8BCFF
:101AB00098604FF0FF30ECE7400F0020AFF300805C
:101AC00008B5202383F31188FFF7DAFF002383F39F
:101AD000118808BDAFF30080AFF30080AFF3008042
:101AE00008B50246202383F311888368581C002818
:101AF000906003DD002383F3118808BD106803683C
:101B0000002113605A60FFF7CBFCF3E7AFF30080CE
:101B100082680346501C0028986000DD70471A68F0
:101B20001168104619604B6000235362FFF770BCC8
:101B3000F8B50D1E044637DD83680026581C6A1E62
:101B4000B042A06002F001072FDD013D2CD077B13B
:101B5000A3685A1C002AA2602FDD013D07D134E0A2
:101B6000A168481C0028A06014DD013D1BD0A068BE
:101B7000431C002BA36005F1FF35F1DC20680268EF
:101B800022605460FFF744FC4662A168481C0028AC
:101B9000A060EADC2068036823605C60FFF738FC23
:101BA000013D4662E3D1F8BDF8BD206801682160BF
:101BB0004C60FFF72DFC4662C7E720680168216092
:101BC0004C60FFF725FC4662C7E7F8BDAFF3008025
:101BD00010B5024682B0202383F311888368581C15
:101BE0000028906019DD8A68501E0028886007DB95
:101BF000FFF7C6FC0020002383F3118802B010BD5C
:101C00000B4C4B68A469032084E80A004C601C60FC
:101C10006162FFF70DFC606AEDE71068036813600E
:101C20005A600191FFF7F4FB002141620199DAE764
:101C3000400F0020AFF30080AFF30080AFF30080CF
:101C40000023406000608360704700BFAFF30080F6
:101C5000F8B52F4A836894690546002B51D0A168D6
:101C60009868814206D91A7F9960042A31D0052AE2
:101C70001CD092B128460068854203D08368A168D1
:101C80008B42F8D242682060626044600420146095
:101C90006562BDE8F840FFF7CBBB93E80600116032
:101CA000196818464A60FFF7B3FBE3E758681F68F6
:101CB0005E6A07601F68324678601268964202D0FA
:101CC00090688842F9D251681A6059600B6053607D
:101CD000D0E758681F685E6A07601F683246786000
:101CE0001268964212D090688842F9D251681A6000
:101CF00059600B605360B368A1689A688A42B2D396
:101D0000B8E7E36B8460C360E063F8BD3246EDE79B
:101D1000400F0020AFF30080AFF30080AFF30080EE
:101D200008B5202383F31188FFF792FF002383F384
:101D3000118808BDAFF30080AFF30080AFF30080DF
:101D40000246202383F31188836823B100200023F7
:101D500083F31188704704488369D96B9360D1601D
:101D60000120DA63F3E700BF400F0020AFF30080EB
:101D7000154A38B59069202383F31188C46B256810
:101D8000E368A542C3631CD0016C4BB11A689A4248
:101D900003D09268914238BF1146DB68002BF5D121
:101DA0002B68EA6B8160236028465C600021A56097
:101DB000E260EC63FFF774FB002383F31188204695
:101DC00038BD0023A360F7E7400F0020AFF3008089
:101DD00038B5124B9869C46B2568E368A542C363A4
:101DE00018D0016C4BB11A689A4203D092689142A4
:101DF00038BF1146DB68002BF5D12B68EA6B816098
:101E0000236028465C60A560E260EC63FFF700FB9E
:101E1000204638BD0021A160204638BD400F00207B
:101E2000134A70B52023946983F31188E36BD3B10F
:101E300000260BE01168D56B196010464B609A6064
:101E4000DD60D363FFF7E4FAE36B43B11A68D96846
:101E50009A42E163EED19E60E36B002BF6D1206CD9
:101E6000A060FFF78DFB002383F3118870BD00BFD6
:101E7000400F0020AFF30080AFF30080AFF300808D
:101E800040600060704700BFAFF30080AFF3008098
:101E900008B50246202383F311880068904205D0DC
:101EA0000368002113605A60FFF7FAFA002383F3F6
:101EB000118808BDAFF30080AFF30080AFF300805E
:101EC00008B503460068984206D002681A6053605D
:101ED000FFF79EFA0021416208BD00BFAFF300800A
:101EE00038B504460068A0420AD06FF001050368C7
:101EF00023605C60FFF78CFA45622068A042F6D14F
:101F000038BD00BFAFF30080AFF30080AFF30080B7
:101F100008B5202383F31188FFF7E2FFFFF730FBBA
:101F2000002383F3118808BDAFF30080AFF3008076
:101F3000F8B5104B05469C69FFF74AFF2E46074649
:101F40006562284603E08168A268914210D3006868
:101F50008542F8D17368266063601C607460052058
:101F6000FFF766FA646A3846FFF772FE2046F8BD4E
:101F70000646EFE7400F0020AFF30080AFF300808C
:101F800008B5202383F31188FFF7D2FF002383F3E2
:101F9000118808BDAFF30080AFF30080AFF300807D
:101FA0002DE9F04106468846FFF712FF0E4B9A696D
:101FB0000746334656621B689E4203D09D6894686C
:101FC000A542F8D25C68052082E8180041462260EC
:101FD0005A60FFF745FA431C044602D03846FFF723
:101FE00037FE2046BDE8F081400F0020AFF30080AF
:101FF00008B5202383F31188FFF7D2FF002383F372
:10200000118808BDAFF30080AFF30080AFF300800C
:1020100030B4202383F3118840F64073C2F20003EA
:1020200004689D690C600024016023464D608A604D
:10203000CC6083F3118830BC704700BFAFF30080E1
:10204000202383F31188024600E01A461368834276
:1020500003D09942F9D108681060002383F31188F6
:10206000704700BFAFF30080AFF30080AFF3008094
:1020700010B4202383F3118840F64072C2F20002AC
:10208000002391698A6B22EA00048C6383F3118830
:10209000104010BC704700BFAFF30080AFF300806A
:1020A000202383F3118840F64072C2F2000200231D
:1020B0009269916B0843906383F31188704700BF66
:1020C00008B5826B037F1143082B81630BD0092B6A
:1020D00000D008BD426A11408A42FAD1FFF798F950
:1020E0000021416208BD436A1942F7D108BD00BF13
:1020F00008B5202383F31188FFF7E2FFFFF740FACA
:10210000002383F3118808BDAFF30080AFF3008094
:1021100070B50468A04205460E4608D0201D0BC8C5
:102120003343E360FFF7CCFF2468A542F6D170BDCE
:1021300008B5202383F31188FFF7EAFFFFF720FAA1
:10214000002383F3118808BDAFF30080AFF3008054
:10215000F8B50D46074689B10024012601E0013497
:1021600065B106FA04F32B42F9D057F82420204633
:1021700025EA030501349047002DF2D1F8BD00BFD8
:1021800038B50D4B05469C69202383F31188A16B5C
:1021900010EA010206D160620820FFF749F9A16B3D
:1021A00005EA01025042104021EA0001A163002328
:1021B00083F3118838BD00BF400F0020AFF30080CB
:1021C00038B50B4B05469C69202383F31188A16B1E
:1021D000084006D108206562FFF72AF9A16B05EADD
:1021E000010021EA0001A163002383F3118838BDB7
:1021F000400F0020AFF30080AFF30080AFF300800A
:1022000038B50C4B04469D69202383F31188A86BD5
:1022100004EA0002A24204D009206C62FFF708F928
:10222000A86B20EA0400A863002383F311882046EA
:1022300038BD00BF400F0020AFF30080AFF3008037
:10224000114B70B59E690546202383F31188B06B4E
:1022500015EA00040ED121B9234683F311882046E4
:1022600070BD08207562FFF7FBF80028F4DBB06B47
:1022700005EA000461420C4020EA0400B063002338
:1022800083F31188204670BD400F0020AFF300801B
:10229000104B70B59E690446202383F31188B26BFE
:1022A00014EA02050ED121B92B4683F31188284682
:1022B00070BD08207462FFF7D3F80028F4DBB26B1E
:1022C00004EA020522EA0502B263002383F31188BF
:1022D000284670BD400F0020AFF30080AFF30080B0
:1022E00038B5134B04469D69202383F31188AA6BEC
:1022F00004EA0203A3420DD029B90B4683F31188E7
:102300000C46204638BD09206C62FFF7A9F800286A
:1023100008DBAA6B22EA0402AA63002383F3118874
:10232000204638BD002383F311881C46F8E700BF20
:10233000400F0020AFF30080AFF30080AFF30080C8
:102340000E4B70B59C69202383F3118800F12C0596
:102350006562067F036B25600C2E61636360046316
:102360001C6007D00A20FFF763F8606A002383F33C
:10237000118870BDFFF74CF8F4E700BF400F002054
:1023800010B5202383F311880B4CA3691A4652F829
:102390002C0F904208D00168D9624A600B220023BA
:1023A000027783F3118810BD0C20FFF741F8A36971
:1023B0001A4652F82C0FEEE7400F0020AFF30080D2
:1023C00008B5202383F31188FFF76AF8002383F30D
:1023D000118808BDAFF30080AFF30080AFF3008039
:1023E00038B504460B4601EB820500F11C0011468E
:1023F000E360A36084E82800FFF7C2FA04F110004C
:102400000021BDE83840FFF7BBBA00BFAFF3008042
:1024100010B52023044683F3118803684168C36024
:10242000CA1A9110A36000F11C00FFF7B1FA04F181
:1024300010000021FFF7ACFAFFF7A2F8002383F3A6
:10244000118810BDAFF30080AFF30080AFF30080C0
:1024500070B504460E4600F11C001146FFF710FB54
:10246000054678B9A368626843F8046B9342A36099
:1024700028BF236804F1100028BFA360FFF748FBC2
:10248000FFF77EF8284670BDAFF30080AFF3008001
:1024900008B5202383F31188FFF7DAFF002383F3C5
:1024A000118808BDAFF30080AFF30080AFF3008068
:1024B000426A002A10B50FDD83684468013A42621F
:1024C00043F8041BA342836024BF03688360103079
:1024D000FFF71EFB002010BD4FF0FF3010BD00BF06
:1024E00070B504460E4600F11C001146FFF7C8FA0D
:1024F000054660B9E3682268191F9142E16008D37C
:1025000004F110000E60FFF703FBFFF739F82846CF
:1025100070BD6068011FE160F2E700BFAFF30080AB
:1025200008B5202383F31188FFF7DAFF002383F334
:10253000118808BDAFF30080AFF30080AFF30080D7
:10254000426A002A10B510DDC3680468043B013AF2
:10255000A3424262C36002D24368043BC3601030AE
:102560001960FFF7D5FA002010BD4FF0FF3010BD05
:1025700070B504460E4600F110001146FFF780FAD0
:10258000054680B9E368626853F8041B93423160E2
:10259000E36028BF236804F11C0028BFE360FFF755
:1025A000B7FAFEF7EDFF284670BD00BFAFF300801D
:1025B00008B5202383F31188FFF7DAFF002383F3A4
:1025C000118808BDAFF30080AFF30080AFF3008047
:1025D0008269002A10B510DDC3684468013A82613F
:1025E00053F8042BA3420A60C36024BF0368C3608E
:1025F0001C30FFF78DFA002010BD4FF0FF3010BDEA
:1026000010B4024659B1084B9B69586244680D20CA
:1026100083E814005360236010BCFEF721BF4FF025
:10262000FF3010BC704700BF400F0020AFF30080A8
:1026300010B4C361019B40608A180024006084606C
:1026400041618161C1600261036210BC704700BFDB
:1026500038B50446C368006863610021A042A361E5
:10266000A1600AD06FF00105026822605460FEF795
:10267000CFFE45622068A042F6D138BDAFF300809E
:10268000426908B503468069824298681AD00130D1
:10269000986002F8011B19695A618A420BD21868C6
:1026A00098420DD0016819604B60FEF7B1FE00231F
:1026B0004362184608BD1868DA6898425A61F1D139
:1026C000002008BD0028E2D06FF0030008BD00BF65
:1026D00070B5202304460E4683F31188C36903B105
:1026E0009847A568204631463DB9FFF789FF002885
:1026F000F7DA2B4683F3118870BDA1692269013D89
:10270000A56011F8010B9142A16124BFE168A161AC
:10271000002383F3118870BDAFF30080AFF3008016
:102720002DE9F0471E460446C769202383F311882C
:102730004FF0000801F1010901EB020A0FB1204638
:10274000B847A568204631464DB9FFF759FF002824
:10275000F7D02B4683F311884046BDE8F087A36984
:10276000013DA56013F8012B09F8012C2069A36134
:10277000834224BFE368A361002383F31188D1451A
:1027800008F10108E8D0202383F3118809F1010939
:10279000D4E700BFAFF30080AFF30080AFF3008059
:1027A00010B4C361019B40608C180060826041617D
:1027B0008161C1600461036210BC7047AFF30080A7
:1027C00038B50269C368044600686361D11AA04243
:1027D000A361A1600AD06FF00105036823605C600B
:1027E000FEF716FE45622068A042F6D138BD00BF54
:1027F000F8B504460F461646202383F31188A568D2
:10280000204631463DB9FFF7FBFE0028F7DA2B469C
:1028100083F31188F8BD6369013DA56003F8017B6E
:1028200022696361934228BFE368E16928BF63615D
:1028300009B120468847002383F311881846F8BD64
:10284000826941699142034610B5806816D0441CE4
:102850009C6012F8014B19699A618A420BD2186880
:10286000984206D0016819604B60FEF7D1FD002345
:102870004362204610BDDA689A61F0E70028E6D08E
:102880006FF0020010BD00BFAFF30080AFF3008017
:102890002DE9F0479A46044688461646D0F81C9023
:1028A000202383F311880027A56820466B1EEDB115
:1028B000A360656918F8011B05F8011B22696561B1
:1028C000954224BFE2686261B9F1000F00D0C847A9
:1028D000002383F311880137013E10D0202383F3B6
:1028E0001188A56820466B1E002DE1D12046514677
:1028F000FFF786FE0028D7D02B4683F31188384691
:10290000BDE8F087AFF30080AFF30080AFF3008045
:1029100040F6607240F65C7348F200010648C2F26D
:102920000002C2F20003C2F2010120F0070021F010
:1029300007011060196070476F240020AFF300801A
:10294000202383F31188094B09491A680968073065
:1029500020F00700891A88429ABF101818600022D8
:10296000002383F311881046704700BF600F0020DA
:102970005C0F0020AFF30080AFF30080AFF3008066
:1029800040F65C7240F66073C2F20002C2F20003CD
:1029900010681968401A7047AFF30080AFF30080E9
:1029A00040F66873C2F2000342F641110022C0F6FD
:1029B000000103F1100019609A60DA60FFF740B976
:1029C000002303608160C360083A10300B604A60E6
:1029D000FFF736B9AFF30080AFF30080AFF30080AC
:1029E000F8B5204E002818BF0646073106F1100042
:1029F00021F0070506F10804FFF792F900E01C46F4
:102A00002368FBB15A689542F9D805F10801914253
:102A100015D84FF6F870CFF6FF70401B03EB010E90
:102A200082181868CEF8042058505D60C4F800E0A1
:102A30001C4644F8086BFFF79BF92046F8BD19685F
:102A40002160F5E7FFF794F932684AB105F1080013
:102A5000904728B100F10804066045602046F8BDA3
:102A60000024EAE7680F0020AFF30080AFF3008096
:102A700070B50646A0F1080450F8080C00F10805EE
:102A80001030FFF74DF92B46AB421A6801D0A34234
:102A900002D21AB1944201D31346F5E756F8041C4A
:102AA00046F8082C1C6001F1080256F8085CA018D2
:102AB000A84209D05A6802F1080019188C4211D0B6
:102AC000BDE87040FFF754B94068A25809180831B2
:102AD00046F8041C46F8082C5A6802F10800191838
:102AE0008C42EDD156F8040C56F8081C1218083226
:102AF00083E80600E4E700BFAFF30080AFF3008097
:102B000038B50E4C002818BF044604F110000D46DD
:102B1000FFF706F9A3686BB10022144658681B68DA
:102B200012180134002BF9D105B12A60FFF720F902
:102B3000204638BD1A461C46F6E700BF680F002045
:102B40000023036041608260704700BFAFF30080E4
:102B500070B4002A36D0013A02F00105202383F335
:102B60001188046800230C60016083F311884368B6
:102B7000C9183AB365B1202383F311880468002390
:102B80000C60016083F311884368013A194419D03D
:102B9000202383F31188046800230C60016083F311
:102BA00011884568013A4C19202383F3118806687F
:102BB00000234E51046083F311884368013A04EB0B
:102BC0000301E5D170BC7047AFF30080AFF3008024
:102BD00008B50246202383F31188006828B10168F4
:102BE0001160002383F3118808BD9368002BF8D08F
:102BF00050689847F5E700BFAFF30080AFF300805F
:102C0000202383F31188026800230A60016083F3A4
:102C100011887047AFF30080AFF30080AFF30080FE
:102C200041F6C503C2F2000301221A70704700BFCB
:102C300038B50B4D4C24286803682D219A689047BD
:102C400028680168013C8B682D219847013CF2D12E
:102C5000034804490068026813680222984738BD97
:102C6000F8180020A8210108AFF30080AFF300801E
:102C7000F0B585B0002837D00DF101054CF6CD46F2
:102C80002B46CCF6CC46A6FB0012D40804EB8401FC
:102C9000A0EB41003030C1B2204603F8011C1C46B5
:102CA00001330028EFD16A4694421BD9601BC30749
:102CB000114F11D5386803689A68904714F8021CC0
:102CC000013C09E0386814F8021C0368661E9A6823
:102CD000904716F8021C023C386803689A689047CF
:102CE000AC42EFD105B0F0BD03490868036830215C
:102CF0009A689047F6E700BFF8180020AFF300800D
:102D000038B5017849B1054D0446286803689A68CA
:102D1000904714F8011F0029F7D138BDF81800209A
:102D200038B50178084D41B10446286803689A68AF
:102D3000904714F8011F0029F7D128680349036858
:102D400002221B68984738BDF8180020A821010806
:102D5000202383F3118841F6C802C2F20002002347
:102D6000116801F8010B116083F31188704700BFEF
:102D700041B9054A054901231370054A0B701060DB
:102D80001846704700207047C4180020CC18002057
:102D9000C0180020AFF30080AFF30080AFF30080D5
:102DA000DFF874C0F0B4184FDCF80060F21BD207F3
:102DB0003B4614D5BE4217D911F8012B3C787B1C39
:102DC00094420CD016E01B7812F8015BAB4204F180
:102DD00001030FD14D782478511CAC420AD19E4298
:102DE0000A4603F10104EED80B781BB9CCF8007049
:102DF000184607E0054A064B01211170054A197073
:102E000010600846F0BC7047FC180020C418002071
:102E1000CC180020C0180020C8180020AFF3008094
:102E2000084BDB68521A5B1A934208D3064B074AD9
:102E300001211970064B1170186008467047002078
:102E4000704700BF300F0020C4180020CC180020AD
:102E5000C0180020AFF30080AFF30080AFF3008014
:102E600010B50C4C206808B1FEF74AFC606808B148
:102E7000FEF746FCA06808B1FEF742FCE06808B126
:102E8000FEF73EFC206918B1BDE81040FEF738BCE3
:102E900010BD00BFE4180020AFF30080AFF3008046
:102EA00010B5124C206818B1FEF7A2FC0023236075
:102EB000606820B1FEF79CFC0C4800224260A068CC
:102EC00020B1FEF795FC094B00219960E06820B124
:102ED000FEF78EFC05480022C260206920B1FEF793
:102EE00087FC024B0021196110BD00BFE4180020CF
:102EF000104B30B49C694FF47A7101FB00F0226AE8
:102F000044F6D355431EC1F26205501CA5FB035184
:102F100000EB9115AA42236A03D29A4203D930BC2E
:102F200070479A42F6D99D4294BF00230123002B9B
:102F3000F0D1F4E7400F0020AFF30080AFF3008042
:102F400008B50120FEF7ECFB40F63073C2F2000337
:102F5000D86808BDAFF30080AFF30080AFF3008006
:102F600041F6C503C2F2000310B500241C702023F3
:102F700083F311884FF47A7101FB00F044F6D352C9
:102F80000138C1F26202A2FB0023990941F6D00088
:102F900042F621422346C2F200000131C0F600028F
:102FA000FEF7BEF9234683F3118810BDAFF300800E
:102FB0002DE9F04F9C4C9D4D206083B09C48FFF75D
:102FC000AFFE9C48FFF7ACFE9B48FFF7A9FE2A2105
:102FD000206803689A68904715F8011F0029F7D107
:102FE0009648974EFFF79CFE2A2120680768BD6827
:102FF000A84716F8011F0029F7D19248924EFFF713
:103000008FFE2A21206803689A68904716F8011FEE
:103010000029F7D18D488E4FFFF782FE2A212068C4
:103020000568AE68B04717F8011F0029F7D1894835
:10303000894FFFF775FE2A21206803689A68904738
:1030400017F8011F0029F7D18448854DFFF768FE66
:103050002A2120680668B768B84715F8011F0029BB
:10306000F7D18048804DFFF75BFE2A212068036876
:103070009A68904715F8011F0029F7D17B487C4ECC
:10308000FFF74EFE2A2120680768BD68A84716F89A
:10309000011F0029F7D1774B774800910193FFF783
:1030A0003FFE6348754EDFF80C92754FFFF738FE10
:1030B00041F6CC000099C2F200008A4601700AF184
:1030C000010A4FF0000857F8042B002A00F0848012
:1030D0006C4DFFF7ADFD2D2120680268936898477D
:1030E00015F8011F0029F7D15046FFF7C1FD4E49E1
:1030F000654D086802682E21936808F10108984719
:103100004046FFF7B5FD2021206802689368984784
:1031100015F8011F0029F7D157F8040C0568297824
:1031200039B1206802689368984715F8011F002993
:10313000F7D15648564DFFF7F3FDC820FEF7F0FAD9
:10314000544957F804BCC6F8009000200860486055
:103150008860C8600861DBF80420287002B19047DD
:10316000DBF80C309847DBF8081001B18847FFF70F
:1031700097FE2D78002D00F09F80474D2D2120686F
:1031800002689368984715F8011F0029F7D1434852
:10319000434D0068FFF76CFD2021206802689368AA
:1031A000984715F8011F0029F7D1316849450BD917
:1031B0003C4D206815F8011C0268936898473068F8
:1031C000294601358142F4D33748FFF7A9FD57F866
:1031D000042B002A7FF47CAF019D55F8047F0195F4
:1031E000002F7FF46CAFFFF723FD304D1048FFF741
:1031F00097FD4621206803689A68904715F8011FDB
:103200000029F7D141F6CC01C2F20001087800286C
:1032100056D12748FFF784FD41F6CC03C2F20003E4
:10322000187803B0BDE8F08FF818002010040108EA
:1032300084200108F00301080C040108700401084F
:10324000780401088C040108A4040108B8040108EA
:1032500000050108140501082005010834050108CE
:1032600040050108540501086C05010880050108A6
:10327000AC05010800060108C0050108C8180020B7
:103280007006010824040108E4050108340401085B
:10329000C4180020E418002038040108C0180020D9
:1032A000E8050108FD18002050040108EC0501089C
:1032B00060040108FC1800200348FFF731FD02E715
:1032C0000248FFF72DFDA7E7540401086804010830
:1032D000F8B54D4EB3699C68651C2846FEF7E8F9C1
:1032E000021B5142514107460120FFF741FD00B149
:1032F000F8BDB06983680220EA1A51425141FFF7D4
:1033000037FD0028F4D13846FEF7D2F9B5EB000CB2
:10331000DCF1000050EB0C010320FFF729FD002831
:10332000E6D1B3699A680420B2EB040EDEF1000125
:1033300051EB0E01FFF71CFD0028D9D1202383F3A8
:103340001188B769BB689A1CBA60034683F3118879
:10335000B0698168A71C0520CB1B5A4252EB0301C0
:10336000FFF706FD0028C3D12846FEF7A1F9001B90
:10337000414241410620FFF7FBFC0028B8D1B36968
:103380009A680720B7EB020CDCF1000151EB0C014D
:10339000FFF7EEFC0028ABD1B069036C0820B5EB59
:1033A000030EDEF1000252EB0E01FFF7E1FC0028F4
:1033B0009ED1E71C3846FEF77BF9281A414241416D
:1033C0000920FFF7D5FC002892D1B3699A680A203A
:1033D000BB1A59425941FFF7CBFC002888D1B0698C
:1033E000026C0B20BB1A59425941FFF7C1FC00285F
:1033F0007FF47EAF202383F31188B16903468C608C
:103400000C6483F3118873E7400F0020AFF3008052
:10341000F0B540F64077C2F2000740F2D036BB6903
:1034200083B0C0F601069A68706843F2F15542F223
:10343000E841C0F60005C0F60101043A2B460091B0
:103440004FF4EC71FEF71CF9BC693168A36841F6D2
:10345000E404C2F200045A1F606040F2A060C0F6AB
:1034600001002B46009008464FF4EC71FEF708F976
:10347000BA6931699368206040F29060C0F601003B
:103480005A1E00902B4608464FF4EC71FEF7F8F8F0
:10349000BA69F1689268206140F29460C0F6010058
:1034A0002B460090023A08464FF4EC71FEF7E8F81C
:1034B0002023E06083F31188BB69B0689A6840F20A
:1034C0009861C0F601012B460091033A4FF4EC716C
:1034D000FEF79EF80023A06083F31188A068FEF732
:1034E000FFF8FFF7DDFC40F29C610120C0F601010E
:1034F00003B0BDE8F040FFF753BC00BFAFF300805E
:103500002DE9F04140F64078C2F2000840F2D03692
:10351000D8F8183082B0C0F601069A68306843F2D5
:10352000F15540F2A064C0F60005C0F60104053A6A
:103530002B4600944FF4EC71FEF7A2F841F6E40438
:10354000C2F20004D8F8181077688B68206042F245
:10355000E840C0F601001A1F00902B464FF4EC71B2
:103560003846FEF78DF8D8F81820B7689368606081
:1035700040F29860C0F60100DA1E00902B464FF42E
:10358000EC713846FEF77CF8D8F81810F7688A68AE
:10359000A06040F29460C0F60100023A2B46009011
:1035A0004FF4EC713846FEF76BF8D8F818303669EE
:1035B0009A68E06040F29060C0F601004FF4EC7150
:1035C000013A2B4600903046FEF75AF82061FFF78B
:1035D00067FC40F29C610120C0F6010102B0BDE829
:1035E000F041FFF7DDBB00BFAFF30080AFF3008019
:1035F00008B50078FFF7ACFB002008BDAFF30080F2
:1036000038B51C4DFFF79CFCEC686420FEF788F889
:10361000012004F1640104F16502FFF701FC00B12F
:1036200038BDEC686420FEF77BF8022004F16401E9
:1036300004F16502FFF7F4FB0028F1D1EC684FF4C8
:103640007A70FEF76DF8032004F57A7104F2E9321E
:10365000FFF7E6FB0028E3D1EC6804F16405284697
:10366000FEF76EF80420294604F16502BDE83840F3
:10367000FFF7D6BB300F0020AFF30080AFF3008020
:1036800040F60000C2F200000021FEF779B900BF49
:1036900040F60000C2F200000021FEF771B900BF41
:1036A00040F60000C2F200000021FEF769B900BF39
:1036B00000B587B0002103A8FEF762F9002103A836
:1036C000FEF79EF9059901200029CCBF00210121B8
:1036D000FFF74EFB08B107B000BD304B9869304B87
:1036E0008268304803A9013A009100684FF4EC71F8
:1036F000FDF7C6FF2C4B186003A8FEF7B1F905993A
:1037000002200029CCBF00210121FFF731FB002856
:10371000E1D1202383F31188059A002A36DDFDF7D5
:103720002FFF002383F31188059903209942D4BF0A
:1037300000210121FFF71CFB0028CCD105990420B2
:103740004B1E5A4252EB0301FFF712FB0028C2D175
:10375000202383F31188059800281BDDFDF710FF57
:10376000002383F31188059903209942D4BF0021D7
:103770000121FFF7FDFA0028ADD1059905204B1E68
:103780005A4252EB0301FFF7F3FAA4E703A8FEF74E
:10379000BFF9C4E703A8FEF7BBF9DFE7400F00203D
:1037A000B1370008D0030108E4180020AFF300800F
:1037B00008B5202383F311888368002B06DDFDF70D
:1037C000DFFE002383F31188184608BDFEF7A0F939
:1037D000F5E700BFAFF30080AFF30080AFF30080E8
:1037E00010B540F60004C2F200042046FEF738F996
:1037F0002046FEF775F9002010BD00BFAFF3008032
:1038000010B5044640F60000C2F20000FEF728F9A9
:103810002078FFF79DFA002010BD00BFAFF30080B5
:1038200008B53220FDF77CFF202383F3118840F692
:103830000000C2F20000FEF76BF9FDF7A1FE0023C5
:1038400083F31188184608BDAFF30080AFF3008002
:103850002DE9F043DFF84081454CD8F81830266850
:103860009A68444F444B454D85B04FF4EC71053296
:1038700000973046FDF704FFD8F8181063688A688F
:1038800028603F4803934FF4EC7101323A4B0090AB
:103890000398FDF7F5FED8F81810A2688B686860E9
:1038A000384803924FF4EC71DA1C0090324B0398C5
:1038B000FDF7E6FED8F81810E2688B68A860324879
:1038C00003924FF4EC711A1D00902B4B0398FDF7F7
:1038D000D7FED8F8181024698A68E8602B48264B70
:1038E00000904FF4EC7102322046FDF7C9FE284CDF
:1038F00028612046FEF7F4F82046FEF7F1F820464E
:10390000FEF7EEF82046FEF7EBF82046FEF7E8F863
:10391000FFF7C6FA01201F49FFF742FA814610B1AE
:1039200005B0BDE8F083D8F81810134B8A680097EB
:1039300030464FF4EC710532FDF7A2FE20232860DB
:1039400083F3118802212046FEF7F2F8FDF718FEF6
:103950004B4683F31188FFF7A3FAA36802205A1E8F
:103960005142514105B0BDE8F043FFF701BA00BF35
:10397000D00301089006010801380008E41800206F
:103980009406010898060108E8240108A006010829
:10399000000800209C060108400F0020AFF30080C3
:1039A00010B5214B214C9869214B826882B00020D0
:1039B0000090204801324FF4EC710068FDF760FE82
:1039C0001D4B214618602046FEF702F921680120B0
:1039D0000A1B534253EB0201FFF7CAF908B102B0C8
:1039E00010BDA1680220D1F1010138BF0021FFF70D
:1039F000BFF90028F3D121462046FEF7E9F82268F6
:103A00000320131B59425941FFF7B2F90028E6D1B0
:103A1000A2680420D2F1010138BF002102B0BDE844
:103A20001040FFF7A5B900BF400F0020000800209C
:103A3000E1370008D0030108E4180020AFF300804C
:103A400070B5A04C002182B02046FEF739F8B0F1E5
:103A5000FF33594259410120FFF78AF908B102B0FA
:103A600070BD22680220B2EB040CDCF1000353EBC2
:103A70000C01FFF77DF90028F1D1A1680320D1F1F5
:103A8000010138BF0021FFF773F90028E7D18E4DFF
:103A90008E4BAA69916800908D484A1E00684FF4C9
:103AA000EC71FDF7EDFD8B4B4FF4FA711860204679
:103AB000FEF706F80546FFF7F3F90420D5F10101FA
:103AC00038BF0021FFF754F90028C8D1226805202B
:103AD000B2EB040EDEF1000151EB0E01FFF748F9E5
:103AE0000028BCD1A3680620D3F1010138BF002112
:103AF000FFF73EF90028B2D1774EFFF721FA4120B7
:103B0000F668FFF725F94FF4FA712046FDF7D8FF64
:103B1000B0F1FF30424252EB00010720FFF728F9D5
:103B200000289CD1216808200B1B5A4252EB03014C
:103B3000FFF71EF9002892D1A1680920D1F10101F7
:103B400038BF0021FFF714F9002888D14220FFF781
:103B5000FFF84FF4FA712046FDF7B2FFB0F1FF3CD9
:103B6000DCF1000050EB0C010720FFF701F9002801
:103B70007FF475AF23680820B3EB040EDEF100027A
:103B800052EB0E012546FFF7F3F800287FF467AFEC
:103B9000A1680920D1F1010138BF0021FFF7E8F841
:103BA00000287FF45CAF4320FFF7D2F84FF4FA719E
:103BB0002046FDF785FFB0F1FF30434253EB000193
:103BC0000720FFF7D5F800287FF449AF22680820C6
:103BD000131B59425941FFF7CBF800287FF43FAF40
:103BE000A2680920D2F1010138BF0021FFF7C0F817
:103BF00000287FF434AF4420FFF7AAF84FF4FA719D
:103C00002046FDF75DFFB0F1FF3CDCF1000050EB1A
:103C10000C010720FFF7ACF800287FF420AF2368E1
:103C20000820B3EB040EDEF1000151EB0E01FFF7AB
:103C30009FF800287FF413AFA2680920D2F1010198
:103C400038BF0021FFF794F800287FF408AF452023
:103C5000FFF77EF84FF4FA712046FDF731FFB0F11F
:103C6000FF30434253EB00010720FFF781F80028A3
:103C70007FF4F5AE216808200A1B534253EB020182
:103C8000FFF776F800287FF4EAAEA1680920D1F1A9
:103C9000010138BF0021FFF76BF800287FF4DFAE89
:103CA0000A200E49FFF77CF800287FF4D8AE0B20DD
:103CB00006F6C41106F6C91202B0BDE87040FFF75F
:103CC000AFB800BF00080020400F002021380008D6
:103CD000D0030108E4180020300F00209C060108E2
:103CE000F0B540F64073C2F2000340F2D035996956
:103CF00083B08E68C0F6010540F29064C0F60104FE
:103D000043F60163721C009428684FF4EC71C0F60E
:103D10000003FDF7B5FC41F6E404C2F200046F684D
:103D2000206040F29860C0F6010043F6D153B21C07
:103D300000904FF4EC71C0F600033846FDF7A0FC8C
:103D4000AD68606040F29460C0F6010043F69153A4
:103D50004FF4EC71F21CC0F6000300902846FDF70A
:103D60008FFC40F62C05C2F20005A0602846FEF745
:103D70008FF82846FEF78CF8FFF792F840F62001FE
:103D80000120C0F6010103B0BDE8F040FFF708B81C
:103D900010B5044640F61C00C2F20000FDF7C0FF5B
:103DA0002078FEF7D5FFFDF7E3FF002010BD00BF30
:103DB00010B5044640F60C00C2F20000FDF7B0FF5B
:103DC0002078FEF7C5FFFDF7D3FF002010BD00BF30
:103DD00010B5044640F60C00C2F20000FDF7A0FF4B
:103DE00040F62C00C2F20000FEF7CAF82078FEF779
:103DF000AFFFFDF7BDFF002010BD00BFAFF3008097
:103E000010B5044640F61C00C2F20000FDF788FF22
:103E100040F60C00C2F20000FDF782FF40F62C00D5
:103E20004FF0FF31C2F20000FEF7E2F82078FEF713
:103E30008FFFFDF79DFFFDF79BFF002010BD00BF2A
:103E400040F62C0008B5C2F20000FEF719F840F663
:103E50000C00C2F20000FDF7F3FE40F61C00C2F2B7
:103E60000000BDE80840FDF7EBBE00BFAFF30080E7
:103E700008B540F62C00C2F20000FEF701F840F64B
:103E80000C00C2F20000BDE80840FDF7D9BE00BF3B
:103E900008B540F62C00C2F20000FDF7F1FF40F635
:103EA0000C00C2F20000BDE80840FDF7C9BE00BF2B
:103EB00040F60C00C2F20000FDF7C2BEAFF3008076
:103EC00008B540F60C00C2F20000FDF7B9FE40F65E
:103ED0001C00C2F20000BDE80840FDF7B1BE00BF03
:103EE00008B540F60C00C2F20000FDF7A9FE40F64E
:103EF0001C00C2F20000BDE80840FDF7A1BE00BFF3
:103F000040F60C00C2F20000FDF79ABEAFF300804D
:103F100040F60C00C2F20000FDF792BEAFF3008045
:103F2000F0B540F64073C2F2000340F2D036996912
:103F300083B08F68C0F6010643F6D15540F2A06405
:103F4000C0F60005C0F601047A1C2B4600943068C8
:103F50004FF4EC71FDF794FB41F6E404C2F2000467
:103F6000BA1C206042F2E840C0F601002B460090E7
:103F70004FF4EC717068FDF783FB606040F298606D
:103F8000C0F60100FA1C2B4600904FF4EC71B068AB
:103F9000FDF776FBA06040F29460C0F601003A1D88
:103FA0002B4600904FF4EC71F068FDF769FB366921
:103FB000E06040F29060C0F601004FF4EC717A1DB1
:103FC0002B4600903046FDF75BFB206140F62C004D
:103FD000C2F20000FDF79CFFFEF762FF40F29C6119
:103FE0000120C0F6010103B0BDE8F040FEF7D8BEE5
:103FF000F0B540F64073C2F2000340F2D036996942
:1040000083B08F68C0F6010643F6D15540F2A06434
:10401000C0F60005C0F601047A1C2B4600943068F7
:104020004FF4EC71FDF72CFB41F6E404C2F20004FE
:104030007168206042F2E840C0F60100BA1C2B46CD
:10404000009008464FF4EC71FDF71AFBB168606010
:1040500040F29860C0F60100FA1C2B46009008461A
:104060004FF4EC71FDF70CFBF168A06040F2946036
:10407000C0F601003A1D2B46009008464FF4EC7143
:10408000FDF7FEFA3269E06040F29061C0F601018E
:104090002B46009110464FF4EC717A1DFDF7F0FAB3
:1040A0002023206183F3118840F62C04C2F200041F
:1040B0002046FDF705FF2046FDF702FF2046FDF7ED
:1040C000FFFE2046FDF7FCFE2046FDF7F9FEFDF75A
:1040D00057FA002383F31188FEF7E2FE40F29C6159
:1040E0000120C0F6010103B0BDE8F040FEF758BE64
:1040F000F0B52C4F2C48BB692C4E9C682C4D85B0DC
:10410000FDF70EFE2B4A30682B4B00924FF4EC71FA
:10411000621CFDF7B5FA7168286028480391A21C5B
:104120004FF4EC71244B00900398FDF7A9FAB368A3
:10413000686023480393E21C4FF4EC711E4B00901F
:104140000398FDF79DFAF268A8601E4803924FF4A9
:10415000EC71221D184B00900398FDF791FA366917
:10416000E8601948144B00904FF4EC71621D304622
:10417000FDF786FA2861FDF7FBFDFEF791FEB969B0
:104180008B6801201A1B51425141FEF7F1FD08B125
:1041900005B0F0BD0D49022005B0BDE8F040FEF7C6
:1041A000FFBD00BF400F00200C080020D003010815
:1041B000E4180020A0060108B13D0008E824010829
:1041C0009806010894060108900601089C0601085B
:1041D000F8B52C4D2C4CAB6920469E68FDF7B0FD20
:1041E00001460120FEF7C4FD00B1F8BD2046FDF7F1
:1041F000A7FD80F00101C9B20220FEF7B9FD074614
:104200000028F2D1202383F31188FDF7E1FD3B461E
:1042100083F3118822680320B2EB040EDEF1000361
:1042200053EB0E01FEF7A4FD0028DED1A1680420A7
:10423000D1F1010138BF0021FEF79AFD0028D4D149
:10424000A86982680520931B59425941FEF790FDE9
:104250000028CAD12046FDF763FDFDF7E1FD226885
:104260000620131B59425941FEF782FD0028BCD19C
:10427000A2680720D2F1010138BF0021BDE8F84053
:10428000FEF776BD400F00200C080020AFF3008041
:104290002DE9F0468D4D8E4EAB6932689C688D4895
:1042A0008D4B8E4F85B004F10109039200904FF4BD
:1042B000EC714A460398FDF7E3F976683860884860
:1042C000884B009004F1020A4FF4EC7152463046DC
:1042D000FDF7D6F978608448FDF722FDA9698B685F
:1042E00001201A1B51425141FEF742FD10B105B0A9
:1042F000BDE8F0866420FDF713FAA8698368022000
:10430000B3EB090251425141FEF732FD0028EED1D4
:104310007648FDF705FDA86983680320B3EB090C17
:10432000DCF1000252EB0C01FEF722FD0028DED189
:104330006420FDF7F5F9A9698B680420B3EB0A0E38
:10434000DEF1000252EB0E01FEF712FD0028CED185
:10435000FDF70EFDA86981680520B1EB09035A42FB
:1043600052EB0301FEF704FD0028C0D16420FDF7E5
:10437000D7F9A86981680620B1EB09035A4252EBCC
:104380000301FEF7F5FC0028B1D1FDF749FDA8694E
:1043900081680720B1EB040CDCF1000353EB0C0146
:1043A000FEF7E6FC0028A2D1FEF77AFD504A4A4B00
:1043B00000924FF4EC714A460398FDF761F93860BA
:1043C0004C48484B00904FF4EC7152463046FDF794
:1043D00057F978604448FDF7A3FCA9698B68082069
:1043E000B3EB040EDEF1000252EB0E01FEF7C0FC4F
:1043F00000287FF47CAF6420FDF792F9A8698168FA
:104400000920B1EB09035A4252EB0301FEF7B0FC5D
:1044100000287FF46CAF3548FDF782FCA8698168FD
:104420000A20B1EB09035A4252EB0301FEF7A0FC4C
:1044300000287FF45CAF6420FDF772F9AE69B168C3
:104440000B20B1EB0A0CDCF1000353EB0C01FEF77F
:104450008FFC064600287FF44AAF202383F311889F
:10446000FDF7B6FCFDF78CF8334683F31188A86995
:1044700082680C20B2EB090EDEF1000151EB0E0157
:10448000FEF776FC00287FF432AF6420FDF748F990
:10449000AB699A680D20B2EB090359425941FEF706
:1044A00067FC00287FF423AFFDF7BAFCA869826897
:1044B0000E20131B59425941FEF75AFC00287FF485
:1044C00016AF05B0BDE8F046FEF7EABC400F00208D
:1044D000D00301089406010821450008E4180020D3
:1044E00090060108014500081C0800200C08002067
:1044F000E824010898060108AFF30080AFF30080BC
:1045000008B59620FDF70CF940F60C00C2F2000049
:10451000FDF706FCFDF72CFC002008BDAFF3008082
:1045200008B53220FDF7FCF840F61C00C2F200008E
:10453000FDF7F6FBFDF71CFC002008BDAFF3008083
:104540002DE9F041304EDFF8E480304C84B0FEF7C6
:10455000F7FCB3692E499A68CF682E4BD8F8000053
:1045600000254FF4EC71053A0095FDF789F8B36921
:10457000D8F804209B68039220601A1F4FF4EC7156
:10458000254B00950398FDF77BF8B169D8F8082012
:104590008B6803926060DA1E4FF4EC711F4B00953C
:1045A0000398FDF76DF8B169D8F80C208B68039279
:1045B000A0609A1E4FF4EC71194B00950398FDF71B
:1045C0005FF8B169D8F810608A68164BE0604FF464
:1045D000EC71013A00953046FDF752F82061FEF784
:1045E0005FFC01201049FEF7DBFB10B104B0BDE811
:1045F000F081022007F16E0107F1730204B0BDE8FB
:10460000F041FEF70DBC00BF400F0020E418002071
:10461000300F0020B147000861470008314700080B
:1046200011470008E14600089C060108D003010874
:104630002DE9F041224EDFF8A480224C84B0FEF731
:104640007FFCB36920499A68CF68204BD8F80000F6
:1046500000254FF4EC71013A0095FDF711F8B369AC
:10466000D8F804209B68039220609A1E4FF4EC71E6
:10467000174B00950398FDF703F8B169D8F8086067
:104680008A68144B60604FF4EC71033A0095304631
:10469000FCF7F6FFA060FEF703FC01200E49FEF7D1
:1046A0007FFB10B104B0BDE8F081022007F1640186
:1046B00007F1690204B0BDE8F041FEF7B1BB00BFED
:1046C000400F0020E4180020300F0020314800087F
:1046D00011480008E147000820080108D00301083C
:1046E00008B53220FDF71CF840F61C00C2F20000AD
:1046F000FDF716FB0A20FEF7FBFBFDF739FB412017
:10470000FEF726FB002008BDAFF30080AFF300806A
:1047100008B52820FDF704F81420FEF7E9FB422035
:10472000FEF716FB002008BDAFF30080AFF300805A
:1047300008B51420FCF7F4FF40F61C00C2F200009C
:10474000FDF7EEFA0A20FEF7D3FBFDF711FB43203D
:10475000FEF7FEFA002008BDAFF30080AFF3008043
:1047600008B50A20FCF7DCFF40F61C00C2F200008E
:10477000FDF7D6FA1420FEF7BBFB40F60C00C2F2A0
:104780000000FDF7CDFA0A20FEF7B2FBFDF7F0FAC4
:104790000A20FEF7ADFBFDF7EBFA4420FEF7D8FA4E
:1047A000002008BDAFF30080AFF30080AFF30080BE
:1047B00040F60C0008B5C2F20000FDF7B1FA1E2069
:1047C000FEF796FBFDF7D4FA4520FEF7C1FA00206C
:1047D00008BD00BFAFF30080AFF30080AFF30080EF
:1047E00040F60C0008B5C2F20000FDF799FA282047
:1047F000FEF77EFBFDF7BCFA0A20FEF779FB4320AB
:10480000FEF7A6FA002008BDAFF30080AFF30080EA
:1048100008B51420FCF784FF2820FEF769FB42202E
:10482000FEF796FA002008BDAFF30080AFF30080DA
:1048300008B52820FCF774FF40F60C00C2F2000017
:10484000FDF76EFA0A20FEF753FBFDF791FA4120BF
:10485000FEF77EFA002008BDAFF30080AFF30080C2
:1048600010B540F64072C2F2000240F2D0339169B6
:10487000C0F6010382B08C681868009144F6F10319
:10488000C0F60003621C4FF4EC71FCF7F9FE41F630
:10489000E402C2F200021060FDF772FD446B214693
:1048A000FDF78EFDE0B2FEF753FAFDF769FD446BAC
:1048B0002146FDF785FDE0B2FEF74AFAFDF760FDFF
:1048C000446B2146FDF77CFDE0B2FEF741FA40F66D
:1048D00020010120C0F6010102B0BDE81040FEF742
:1048E0005FBA00BFAFF30080AFF30080AFF300808A
:1048F00010B541210446FDF723FD42212046FDF776
:104900001FFD20464321FDF71BFD002010BD00BF09
:10491000F0B57D4C616A01204B1F5A4283B052EBC7
:104920000301FEF725FA002845D1422120464FF029
:10493000FF32FDF7ADFDD0F1010138BF00210220AB
:10494000FEF716FAB8BB432120464FF0FF32FDF7C1
:104950009FFDD0F1010138BF00210220FEF708FAC7
:1049600048BB442120464FF0FF32FDF791FDD0F1C6
:10497000010138BF00210220FEF7FAF9D8B945211C
:1049800020464FF0FF32FDF783FDD0F1010138BF23
:1049900000210220FEF7ECF968B9412120464FF0D2
:1049A000FF32FDF7BDFDD0F1010138BF002103202A
:1049B000FEF7DEF908B103B0F0BD58210122204610
:1049C000FDF766FDB0F1FF3CDCF1000050EB0C019F
:1049D0000420FEF7CDF905460028ECD1202383F30F
:1049E000118858212046FDF763FD2B46014683F3CD
:1049F00011880520B1F1FF3EDEF1000353EB0E01FB
:104A0000FEF7B6F90028D6D1582101222046FDF73D
:104A100087FDB0F1FF356A4252EB05010620FEF733
:104A2000A7F905460028C6D1202383F31188582111
:104A30002046FDF785FD2B46014683F311880720AC
:104A4000B1F1FF335A4252EB0301FEF791F900280E
:104A5000B1D1202383F31188676A0820D7F10101BF
:104A600038BF0021FEF784F92646074618B1002317
:104A700083F311889FE7034683F31188202383F390
:104A80001188A5690920B5F1050CDCF1000151EB95
:104A90000C01FEF76DF9054618B13B4683F311880A
:104AA00089E7034683F31188202383F31188A368E1
:104AB000E2680A20B2EB030EDEF1000151EB0E01B9
:104AC000FEF756F90346D0B983F31188052605E0B1
:104AD0009DF80400FEF73CF9013E17D00A4D01A9EC
:104AE0004FF0FF322846FDF763FDD0F1010138BFDA
:104AF00000210B20FEF73CF90028E9D05BE72B46AC
:104B000083F3118857E700BF340800200C20C84900
:104B1000FEF746F900287FF44EAF472128464FF0B4
:104B2000FF32FDF7B5FCD0F1010138BF00210D20A7
:104B3000FEF71EF900287FF43EAF01A928464FF08A
:104B4000FF32FDF735FDD0F1010138BF00210E2005
:104B5000FEF70EF900287FF42EAF2A68AB680F200D
:104B6000D21A51425141FEF703F900287FF423AFD6
:104B70002A68EB681020D21A51425141FEF7F8F82A
:104B800000287FF418AF01A901222846FDF710FD87
:104B9000B0F1FF30434253EB00011120FEF7E8F87B
:104BA00000287FF408AF202383F31188284601A949
:104BB000FDF70EFD3346024683F311881220B2F151
:104BC000FF3CDCF1000151EB0C01FEF7D1F80028AD
:104BD0007FF4F1AE202383F311886B6A13205A1FF0
:104BE00051425141FEF7C4F8002383F31188002895
:104BF0007FF4E1AE202383F31188A5698D4C142046
:104C0000D5F1010138BF0021FEF7B2F805460028B2
:104C10007FF42DAF034683F31188202383F311889B
:104C2000A368E2681520D21A51425141FEF7A0F85C
:104C3000034600287FF463AF83F31188202383F3B6
:104C4000118841212046FDF733FCD0F1010138BF26
:104C500000211620FEF78CF800287FF4ACAE42212C
:104C60002046FDF725FCD0F1010138BF00211720B7
:104C7000FEF77EF800287FF49EAE43212046FDF724
:104C800017FCD0F1010138BF00211820FEF770F8A1
:104C900000287FF490AE44212046FDF709FCD0F1B6
:104CA000010138BF00211920FEF762F805460028EF
:104CB0007FF481AE20464521FDF7FAFB2B460246E4
:104CC00083F311881A20D2F1010138BF0021FEF7C9
:104CD0004FF800287FF46FAEE168A3681B20B1EBAA
:104CE000030EDEF1000252EB0E01FEF741F8002840
:104CF0007FF461AE0525202383F311884D4C01A973
:104D00002046FDF765FC0023014683F311881C2033
:104D1000CB1A5A4252EB0301FEF72AF800287FF41F
:104D20004AAE9DF80400FEF713F8013DE3D11D20C3
:104D30003F49FEF735F800287FF43DAE202383F38A
:104D40001188616A1E204B1F5A4252EB0301FEF785
:104D50000FF82B4683F3118800287FF42CAE202314
:104D600083F31188A1691F20D1F1010138BF00210F
:104D7000FDF7FEFF2B4683F3118800287FF41BAE5E
:104D8000E268A3682020D21A51425141FDF7F0FF9A
:104D900000287FF410AE202383F31188452120469C
:104DA000FDF7CEFBD0F1010138BF00212120FDF736
:104DB000DFFF00287FF4FFAD44212046FDF7C0FB54
:104DC000D0F1010138BF00212220FDF7D1FF0028DA
:104DD0007FF4F1AD43212046FDF7B2FBD0F1010194
:104DE00038BF00212320FDF7C3FF00287FF4E3AD87
:104DF00042212046FDF7A4FBD0F1010138BF00217C
:104E00002420FDF7B5FF00287FF4D5AD094C4121E2
:104E10002046FDF795FB0023024683F311882520E9
:104E2000B2EB030CDCF1000353EB0C0104E000BF18
:104E30009C06010834080020FDF79AFF00287FF443
:104E4000BAADE168A2682620B1EB020EDEF10003E4
:104E500053EB0E01FDF78CFF00287FF4ACAD052469
:104E6000202383F311884A4D01A92846FDF7B0FBA2
:104E70000023014683F311882720CA1A534253EBBB
:104E80000201FDF775FF00287FF495AD9DF8040041
:104E9000FDF75EFF013CE3D128203E49FDF780FF8E
:104EA00000287FF488AD202383F31188696A2920C4
:104EB0004A1F534253EB0201FDF75AFF234683F387
:104EC000118800287FF477AD202383F31188A96926
:104ED0002A20D1F1010138BF0021FDF749FF234607
:104EE00083F3118800287FF466ADEA68AB682B2055
:104EF000B2EB030CDCF1000151EB0C01FDF738FFC4
:104F000000287FF458AD2846FDF782FA202383F36A
:104F100011886A6A2C20B2F1050EDEF1000353EB12
:104F20000E01FDF725FF234683F3118800287FF447
:104F300042AD202383F31188A9692D20D1F101010D
:104F400038BF0021FDF714FF234683F311880028A2
:104F50007FF431AD202383F31188AB682A682E20BB
:104F6000D21A51425141FDF703FF234683F31188C2
:104F700000287FF420AD202383F311882A68EB6892
:104F80002F20D21A51425141FDF7F2FE6FE500BFCA
:104F9000340800209C060108AFF30080AFF30080C6
:104FA00040F6340040F68871C2F20000C2F20001FF
:104FB0000522FDF715BA00BFAFF30080AFF3008004
:104FC0004FF0FF30FDF754B8AFF30080AFF300802F
:104FD0004FF0FF30FDF74CB8AFF30080AFF3008027
:104FE0004FF0FF30FDF744B8AFF30080AFF300801F
:104FF0002DE9F04205208CB0FDF752F84FF0FF305C
:10500000FDF7BEF80138414241410120FDF7B0FEF5
:1050100010B10CB0BDE8F0824FF0FF30FDF7B0F8F2
:10502000021F534253EB02010220FDF7A1FE0028AC
:10503000EFD14FF0FF30FDF71BF8D0F1010138BF81
:1050400000210320FDF794FE0028E2D1744D754F36
:10505000754EFDF775FF7549AC690A68A068039243
:105060004FF4EC71421E724B00940398FC68FCF7FD
:1050700007FB30604FF0FF30FDF782F804F132019A
:10508000814604F137020420FDF7CAFE0028C0D192
:105090000520B9F1010359425941FDF769FE002885
:1050A000B7D14FF0FF30FCF7E3FFD0F1010138BF7B
:1050B00000210620FDF75CFE0028AAD1FDF7F0FED6
:1050C0000520FCF7EDFF4FF0FF30FDF779F8B0F168
:1050D000050CDCF1000050EB0C010720FDF748FE49
:1050E000002896D14FF0FF30FCF7C2FFD0F101014C
:1050F00038BF00210820FDF73BFE002889D1FDF7CD
:105100001FFFAC694A4BA268039800944FF4EC71FE
:10511000013AFC68FCF7B4FA30604FF0FF30FDF75D
:105120004FF804F13201814604F137020920FDF7FE
:1051300077FE00287FF46DAF0A20B9F1010EDEF191
:10514000000353EB0E01FDF713FE00287FF461AF5F
:105150004FF0FF30FCF78CFFD0F1010138BF002188
:105160000B20FDF705FE00287FF453AFDFF8D09049
:10517000304CFDF795FE484604A90122C9F800907D
:105180002460FCF745FF08A904222046FCF740FFF5
:10519000FDF7D6FEAD692849A868284B0091421E4C
:1051A0004FF4EC710398FD68FCF76AFA3060052053
:1051B000FDF726F80C2005F1320105F13702FDF765
:1051C0002FFE00287FF425AF4FF0FF30FCF750FF93
:1051D000D0F1010138BF00210D20FDF7C9FD0028E5
:1051E0007FF417AFFDF75CFE484604A9FCF728FFE3
:1051F000204608A9FCF724FFD9F800200E20B2EBC6
:10520000090359425941FDF7B3FD00287FF401AF6E
:1052100022680F20131B59425941FDF7A9FDF8E6FA
:10522000400F0020300F0020E4180020D0030108B8
:1052300081520008600800209006010851520008C1
:105240005C080020AFF30080AFF30080AFF3008074
:1052500040F65C0008B50021C2F20000FCF768FFD0
:105260003220FCF75DFA40F66000C2F20000002137
:10527000FCF75EFF002008BDAFF30080AFF30080B5
:1052800010B504463220FCF74BFA20460121FCF70A
:105290002FFF002010BD00BFAFF30080AFF30080F0
:1052A00010B51D4C88B00122204669462460FCF7E9
:1052B000AFFE204604A90222FCF7AAFE21680120C5
:1052C000091B18BF0121FDF753FD08B108B010BD3F
:1052D00020466946FCF7B4FE22680220111B18BF65
:1052E0000121FDF745FD0028F0D1204604A9FCF777
:1052F000A7FE236803201A1B51425141FDF738FDD8
:105300000028E3D107210548FCF722FF04200449C7
:10531000FDF746FDDAE700BF5C080020800A0108BF
:1053200020080108AFF30080AFF30080AFF30080E6
:105330004320FDF70DBD00BFAFF30080AFF3008049
:105340004220FDF705BD00BFAFF30080AFF3008042
:105350004120FDF7FDBC00BFAFF30080AFF300803C
:1053600008B500214FF0FF30FCF76AFFD0F10101D2
:1053700038BF00210120FDF7FBFC00B108BD01464C
:105380004FF0FF30FCF784FFD0F1010138BF00215E
:105390000220FDF7EDFC0028F0D101464FF0FF3070
:1053A000FCF79EFFD0F1010138BF00210320FDF77B
:1053B000DFFC0028E2D10A214FF0FF30FCF740FF6C
:1053C000D0F1010138BF00210420FDF7D1FC0028F5
:1053D000D4D10A214FF0FF30FCF75AFFD0F1010180
:1053E00038BF00210520FDF7C3FC0028C6D10A21E3
:1053F0004FF0FF30FCF774FFD0F1010138BF0021FE
:105400000620BDE80840FDF7B3BC00BFAFF3008045
:1054100070B582B0FDF7B4FA01A90020FDF770FB6A
:1054200010210020FDF7DCFA011C18BF0121044601
:105430000120FDF79DFC054608B102B070BD204675
:10544000FDF716FB6FF0FF012846FDF7C9FAD0F112
:10545000010138BF00210220FDF78AFC0028ECD1B1
:1054600001A97E48FDF74CFB10217C48FDF7B8FAF6
:10547000102105467948FDF7B3FA10210446774814
:10548000FDF7AEFA06462846FDF7F2FA2046FDF78C
:10549000EFFA3046FDF7ECFA69467048FDF730FB4D
:1054A000B0F1010EDEF1000151EB0E010320FDF71A
:1054B0005FFC0028C1D110216848FDF791FA102146
:1054C00004466648FDF78CFA102105466348FDF74F
:1054D00087FAFDF7CDFA2846FDF7CAFA2046FDF710
:1054E000C7FA69465D48FDF70BFB0138424252EBB3
:1054F00000010420FDF73CFC00289ED111215748F3
:10550000FDF76EFA102104465448FDF769FA054686
:105510002046FDF7ADFA69465048FDF7F1FA831EC3
:10552000594259410520FDF723FC002885D110215F
:105530004A48FDF755FA694604464848FDF7E0FA3F
:10554000012800F0898069464448FDF7D9FA0238FD
:10555000424252EB00010620FDF70AFC00287FF4CE
:105560006CAF2846FDF784FA2046FDF781FA6946BC
:105570003A48FDF7C5FAB0F1010CDCF1000353EB3A
:105580000C010720FDF7F4FB00287FF456AF102133
:105590003248FDF725FA102105463048FDF720FA7C
:1055A00004462846FDF764FA69462C48FDF7A8FA38
:1055B000B0F1020EDEF1000151EB0E010820FDF703
:1055C000D7FB00287FF439AF20212448FDF708FAE3
:1055D000FDF74EFA2046FDF74BFA69461F48FDF7E6
:1055E0008FFA0138424252EB00010920FDF7C0FB5F
:1055F00000287FF422AF69461848FDF781FA009928
:105600001648FDF7EDF9694604461448FDF778FAA7
:10561000D0F1010138BF00210A20FDF7A9FB0028C5
:105620007FF40BAF2046FDF723FA69460B48FDF7E0
:1056300067FA431E594259410B20FDF799FB002898
:105640007FF4FBAE9DE80A000C20CA1A534253EBCC
:105650000201FDF78DFBF0E601467CE71019002002
:1056600041F6101040F68871C2F20000C2F200014B
:1056700040F63812FDF7A4B9AFF30080AFF3008015
:1056800000207047AFF30080AFF30080AFF30080DD
:1056900040F66400C2F200004FF4EC710022FDF706
:1056A0004FBA00BFAFF30080AFF30080AFF30080CC
:1056B00038B5574C5748256805222946FDF748FA62
:1056C0005448FDF785FA011C18BF01210120FDF7A0
:1056D0004FFB002840F08A804E48FDF779FA011C04
:1056E00018BF01210120FDF743FB00287ED1494866
:1056F000FDF76EFA011C18BF01210120FDF738FBF0
:10570000002873D14348FDF763FA011C18BF01213B
:105710000120FDF72DFB002868D13E48FDF758FA1F
:10572000011C18BF01210120FDF722FB00285DD1DB
:105730003848FDF74DFAD0F1010138BF00210220B1
:10574000FDF716FB002851D132482946FDF758FADB
:1057500030486168FDF754FA2E48A168FDF750FA09
:105760002C48E168FDF74CFA21692A48FDF748FA10
:105770002848FDF72DFA011C18BF01210320FDF771
:10578000F7FA002832D12348FDF722FA011C18BF8E
:1057900001210320FDF7ECFA40BB1E48FDF718FA83
:1057A000011C18BF01210320FDF7E2FAF0B91948E6
:1057B000FDF70EFA011C18BF01210320FDF7D8FAEE
:1057C000A0B91448FDF704FA011C18BF01210320F9
:1057D000FDF7CEFA50B90F48FDF7FAF9D0F1010103
:1057E00038BF00210420FDF7C3FA00B138BD1021F5
:1057F000094A0848FDF7A4F90648FDF7E9F9D0F190
:10580000010138BF00210520BDE83840FDF7B0BADE
:10581000D00301086408002081560008AFF300801F
:1058200038B50546FCF784F8002403461846AB4219
:1058300008BF44F00104FCF78BF803460028F5D1BB
:10584000204638BDAFF30080AFF30080AFF3008097
:1058500010B54A4B4A4C99694A488A684A4B82B00B
:105860004FF4EC710094013AFCF71AF80446012059
:10587000A37FB3EB000CDCF1000151EB0C01FDF751
:1058800077FA08B102B010BD2046FBF7D1FFA27F26
:105890000220B2EB000EDEF1000353EB0E01FDF728
:1058A00067FA0028EED12046FBF7D2FFA17F032044
:1058B0004A1E534253EB0201FDF75AFA0028E1D188
:1058C0002046FFF7ADFF01460420FDF751FA0028FE
:1058D000D8D12046FFF7A4FF01460520FDF748FA7E
:1058E0000028CFD12046FBF7B3FFA17F0620D1F1DE
:1058F000010138BF0021FDF73BFA0028C2D1227F09
:105900000720D2F1010138BF0021FDF731FA00284C
:10591000B8D12046FFF784FF01460820FDF728FA9A
:105920000028AFD12046FFF77BFF01460920FDF795
:105930001FFA0028A6D13220FBF7F2FE237F0A20AF
:10594000B3F10E0251425141FDF712FA002899D1EC
:105950002046FFF765FF01460B20FDF709FA0028F6
:1059600090D12046FFF75CFF80F00100C1B20C200F
:1059700002B0BDE81040FDF7FBB900BF400F0020AA
:10598000900601084019002091590008AFF30080EB
:1059900008B50078FDF7DCF9002008BDAFF3008002
:1059A00041F6401040F68871C2F20000C2F20001D8
:1059B00040F63812FDF704B8AFF30080AFF3008073
:1059C00041F6401040F68871C2F20000C2F20001B8
:1059D00040F63812FCF7F4BFAFF30080AFF300805D
:1059E000444B45489A6970B5444E95683168444CBB
:1059F000FDF706F940487168FDF702F93E48B168C5
:105A0000FDF7FEF83C48F168FDF7FAF8691E3D4ADB
:105A10003D4B3948FBF764FFA91E2060394A3B4BD8
:105A20003548FBF75DFFE91E6060364A384B324867
:105A3000FBF756FF291FA060324A364B2E48FBF772
:105A40004FFF691FE0602F4A2B48334BFBF748FF9D
:105A50002168206149B1616839B1A16829B1E16863
:105A600019B1D0F1010138BF00210120FDF780F903
:105A700000B170BDFDF714FA02202849FDF790F936
:105A80000028F6D11C48FDF7A3F8011C18BF01211E
:105A90000320FDF76DF90028EBD11748FDF798F8C2
:105AA000011C18BF01210320FDF762F90028E0D195
:105AB0001148FDF78DF8011C18BF01210320FDF7E7
:105AC00057F90028D5D10C48FDF782F8011C18BF02
:105AD00001210320FDF74CF90028CAD10648FDF743
